:020000040800F2
:100000008007002029020008970E0008930E0008C0
:10001000950E0008C10300088913000800000000C5
:100020000000000000000000000000009B0E00081F
:10003000C303000800000000990E0008310F0008FB
:10004000430200084302000843020008430200087C
:10005000430200084302000843020008430200086C
:10006000430200084302000843020008430200085C
:10007000430200084302000843020008430200084C
:10008000430200084302000843020008430200083C
:10009000430200084302000843020008430200082C
:1000A000430200084302000843020008430200081C
:1000B000430200084302000843020008430200080C
:1000C00043020008430200084302000843020008FC
:1000D000430200085D1300084302000843020008C1
:1000E00043020008430200084302000843020008DC
:1000F00043020008430200084302000843020008CC
:1001000043020008430200084302000843020008BB
:1001100043020008430200084302000843020008AB
:10012000430200084302000843020008430200089B
:10013000430200084302000843020008430200088B
:10014000430200084302000843020008430200087B
:10015000430200084302000843020008430200086B
:10016000430200084302000843020008430200085B
:100170004302000843020008430200080000000098
:10018000430200084302000800F002F800F03CF8C7
:100190000AA090E8000C82448344AAF10107DA45E2
:1001A00001D100F031F8AFF2090EBAE80F0013F0F8
:1001B000010F18BFFB1A43F001031847A0130000FA
:1001C000C0130000103A24BF78C878C1FAD852078B
:1001D00024BF30C830C144BF04680C6070470000C1
:1001E0000023002400250026103A28BF78C1FBD840
:1001F000520728BF30C148BF0B6070471FB501F0E0
:100200009BF91FBD10B510BD00F0AAF81146FFF70D
:10021000F5FF01F021F900F0C8F803B4FFF7F2FF91
:1002200003BC01F0C2F800000948804709480047B4
:10023000FEE7FEE7FEE7FEE7FEE7FEE7FEE7FEE796
:10024000FEE7FEE704480549054A064B70470000F3
:10025000350F000889010008800100208007002078
:100260008003002080030020704753EA020C00F056
:1002700069802DE9F04B4FF00006002B1FBFB3FA49
:1002800083F503FA05F424FA05F65E4012BF16431F
:10029000B2FA82F502FA05F4C5F120051EBF22FA72
:1002A00005FC44EA0C04203556EA044C4FEA144499
:1002B00018BF641C4FF000084FF00009904271EB2A
:1002C000030C39D3002919BFB1FA81F701FA07F6F7
:1002D000B0FA80F700FA07F6C7F120071EBF20FA30
:1002E00007FC46EA0C062037B6FBF4FCA7EB050733
:1002F000103F07F01F0BCBF120060CFA0BFB2CFA7A
:1003000006F644BFB3460026202FA4BF5E464FF03A
:10031000000B5BEA060C08BF4FF0010B19EB0B0951
:10032000ABFB027C48EB0608C01B06FB02CC0BFBB8
:1003300003CC71EB0C01C1E70B460246414648462F
:10034000BDE8F08B13B54FF000004FF00001AFF3A4
:100350000080BDE81C407047704770477047704789
:10036000754600F029F8AE4605006946534620F070
:100370000700854618B020B5FFF764FFBDE82040B0
:100380004FF000064FF000074FF000084FF0000B51
:1003900021F00701AC46ACE8C009ACE8C009ACE804
:1003A000C009ACE8C0098D4670470446AFF3008031
:1003B0002046FFF732FF0000004870472001002070
:1003C000FEE7704790F83510022903D0802141657F
:1003D00001207047052180F835100068016821F080
:1003E00001010160002070472DE9F84FDFF88C9182
:1003F000002209F1040A0AF1040B4FF00F080BF177
:10040000040E01260B6896403340B34271D14C680C
:10041000022C01D0122C11D1D40800EB84073D6AC4
:100420005407E40E08FA04FC25EA0C05D1F810C0C4
:100430000CFA04FC4CEA050CC7F820C0076854000D
:10044000032591F804C0A5400CF0030CAF430CFA4F
:1004500004FC4CEA070CC0F800C04F68012F05D01F
:10046000022F03D0112F01D0122F11D18768D1F89C
:100470000CC0AF430CFA04FC4CEA070CC0F808C0EF
:100480004768B7430E79C6F3001696403E43466070
:10049000C668AE438D68A5403543C5604C68E4002E
:1004A00065D5374C256845F480452560246822F0E1
:1004B000030504F480440094324C2E19D6F80878D1
:1004C0009407250F08FA05F4A7432F4CA04201D149
:1004D000002424E02D4CA04201D101241FE02C4C2B
:1004E000A04201D102241AE02A4CA04202D10324E6
:1004F00015E03CE0284CA04201D104240FE0274C39
:10050000A04201D105240AE0254CA04201D10624D5
:1005100005E0244CA04201D1072400E00824AC40AF
:100520003C43C6F80848D9F800404D464E689C4305
:10053000F60300D51C432C60DAF8004055464E689F
:100540009C43B60300D51C432C60DBF800405D469D
:100550004E689C43F60200D51C432C60DEF8004038
:1005600075464E689C43B60200D51C432C60521C55
:10057000102AFFF446AFBDE8F88F0000003C0140B0
:1005800044380240003001400000024000040240B4
:1005900000080240000C024000100240001402401B
:1005A00000180240001C02400AB181617047090432
:1005B000FBE7000001480068000C7047002004E0E1
:1005C00001488068704700000400002002488168EC
:1005D000027811448160704704000020094810B57A
:1005E000016841F400710160016841F480610160BB
:1005F000052000F057F80F2000F006F800F024F86E
:10060000002010BD003C024070B50D4D04464FF473
:100610007A712878B1FBF0F00A490968B1FBF0F073
:1006200000F0D0FA48B9102C07D200222146501E03
:1006300000F018F800206C6070BD012070BD000053
:1006400004000020000000207047002809DB00F0B3
:100650001F02012191404009800000F1E020C0F814
:1006600000117047F0B40E4B1B68C3F30223C3F1B3
:100670000704042C00D904241D1D072D01D20023DA
:1006800000E0DB1E012606FA04F56D1E0D409D40BC
:100690009E40761E164045EA0601F0BC00F075BE8D
:1006A0000CED00E0064A00F0070110684FF6FF036A
:1006B000184040EA012003490843106070470000D9
:1006C0000CED00E00000FA052DE9F0470D460400AE
:1006D00065D0DFF81491D9F80000EFB200F00F00F8
:1006E000A84207D289F80070D9F8000000F00F0086
:1006F000A84254D120683D4E810712D5400703D54A
:10070000306840F4E05030602078000703D530684E
:1007100040F4604030603068A16820F0F000084389
:1007200030602078C0072DD0304960680839012832
:1007300012D0022813D0032811D009688907002994
:100740002DDA316821F0030101433160FFF738FFF2
:10075000804641F2883A0EE009688903EFE70968AC
:100760008901ECE7FFF72CFFA0EB0801514502D906
:100770000320BDE8F0873068616800F00C00B0EB42
:10078000810FEFD1D9F80010484601F00F01A942BE
:1007900007D90770006800F00F00A84201D00120BF
:1007A000E7E72078400705D53068E16820F4E0509D
:1007B000084330602078000706D53068216920F4AE
:1007C000604040EAC100306000F036F83168084A05
:1007D000C1F30311515CC840064908600F20FFF7C0
:1007E00013FF0020C5E70000003C0240083802402B
:1007F0004215000800000020044805490068096807
:10080000044AC1F38221515CC840704700000020B7
:100810000838024052150008044805490068096874
:10082000044AC1F34231515CC840704700000020C7
:100830000838024052150008154810B5006810F03D
:100840000C01144813D0431004290FD008290ED1ED
:100850000F4C241F216801F03F022168490207D58F
:100860002068C0F38810A0FB030106E0184610BD05
:100870002168C1F38811A1FB00010023FFF7F5FCFB
:100880002168C1F30141491C4900B0FBF1F010BDE2
:10089000083802400024F4002DE9F84F040073D01A
:1008A0002078BD4DC00748D0BB4808300168C1F36F
:1008B0008101012908D00068C0F3810002280AD113
:1008C000281D0068400206D52868800335D5606879
:1008D0000028E4D031E06068B0F5803F10D0B0F57A
:1008E000A02F286810D020F480302860286820F4D9
:1008F000802028606068A0B1FFF762FE06460CE029
:10090000286840F48030F4E740F480202860F7E75E
:10091000FFF756FE801B642872D828688003F7D53D
:100920000BE0FFF74DFE064604E0FFF749FE801B93
:100930006428F1D828688003F7D42078DFF85C9227
:1009400080074FF0000A3ED593480830016811F047
:100950000C0F09D00068C0F3810002280BD18E482B
:10096000001D0068400206D42868800715D5E0689D
:10097000012809D111E0E068B8B10120C9F80000F0
:10098000FFF71EFE064605E003E1FFF719FE801B98
:100990000228C1D828688007F7D52868216920F087
:1009A000F80040EAC10028600DE0C9F800A0FFF798
:1009B00007FE064604E0FFF703FE801B02281FD84F
:1009C00028688007F7D42078000722D5724F744931
:1009D0006069743770B101200860FFF7F1FD0646C9
:1009E00004E0FFF7EDFD801B022809D83868800776
:1009F000F7D50EE0C1F800A0FFF7E2FD064605E0DE
:100A000081E0FFF7DDFD801B02287CD83868800775
:100A1000F7D42078400769D5DFF87CB14FF00008A3
:100A20000BF1400BDBF80000C0000CD4DBF8001029
:100A300041F08051CBF80010DBF800004FF00108C6
:100A400000F080500090574F3868C0050FD43868C8
:100A500040F480703860FFF7B3FD064604E0FFF70E
:100A6000AFFD801B02284ED83868C005F7D54A4F25
:100A7000A068703701280FD00528386810D020F002
:100A800001003860386820F004003860A068B0B118
:100A9000FFF796FD06460EE0386840F00100F4E7E7
:100AA00040F004003860F7E7FFF78AFD811B41F250
:100AB0008830814265D838688007F5D50DE0FFF7AA
:100AC0007FFD064606E0FFF77BFD811B41F2883083
:100AD000814256D838688007F5D4B8F1000F05D0A8
:100AE000DBF8001021F08051CBF80010A069C8B3EA
:100AF000294908310968C1F38101022949D0022836
:100B0000504607D000E03CE0C9F86000FFF758FD10
:100B1000044639E04F46C9F86000FFF751FD06462C
:100B200004E0FFF74DFD801B02282AD828688001C9
:100B3000F7D4D4E907010843A16A1B4A490802EB2C
:100B40000141626A41EA8211084394F82C1040EA9C
:100B500001611148001D016001203866FFF730FD7A
:100B6000044605E013E0FFF72BFD001B022808D820
:100B700028688001F7D50AE0FFF722FD001B022854
:100B800002D90320BDE8F88F28688001F4D4002042
:100B9000F8E70120F6E70000003802400000474275
:100BA000800E4742007000400000FFFF4FF0E02140
:100BB0000428086903D020F004000861704740F061
:100BC0000400FAE710B5401EB0F1807F01D3012088
:100BD00010BD4FF0E02460610F21601700F0D5FBDD
:100BE0000020A06107202061002010BD704710F890
:100BF000391F40780843704770B502680446106892
:100C0000D168536910F00F0F51D003F0010501F4C2
:100C1000907635435DD0C20705D0CA0503D5E26B97
:100C200042F00102E263420705D5DA0703D0E26B26
:100C300042F00202E263820705D5DA0703D0E26BD5
:100C400042F00402E263020705D5DA0703D0E26B43
:100C500042F00802E263E26B002A34D0800604D539
:100C6000880602D5204600F0A5F920684069E16BAE
:100C7000C0F3801001F008010143204624D000F0A9
:100C80008BF92068416949061AD5416921F0400174
:100C90004161606BA0B11B490165606BFFF792FB7E
:100CA000002810D0606B016DBDE8704008478306D6
:100CB0000FD58B060DD52046BDE8704000F07AB9FF
:100CC0002046FFF793FF70BDFFF790FF0020E06321
:100CD00070BD030606D50B0604D52046BDE870405E
:100CE00000F00ABB4006F3D54806F1D5D16820468E
:100CF00021F04001D160202184F8391000F0C8F8BB
:100D000070BD0000890F000870B5040004D094F88D
:100D10003900002510B106E0012070BD84F838507C
:100D2000204600F023F8242084F839002068C168A8
:100D300021F40051C160204600F088F92068016963
:100D400021F4904101612068416921F02A0141614B
:100D50002068C16841F40051C160E563202084F837
:100D6000390084F83A00002070BD000010B500681A
:100D70001A4986B088422FD11948016841F0010113
:100D80000160006800F0010005901548143001680A
:100D900041F0100101600068012100F01000059091
:100DA0004FF4007000900220CDE90101039007206C
:100DB0000C4C049069462046FFF716FB2115009164
:100DC00069462046FFF710FB2520FFF73EFC032273
:100DD00011462520FFF746FC06B010BD001001406B
:100DE000303802400000024090F83A30202B22D1E7
:100DF000F9B1F2B190F83830012B1CD081628285B4
:100E0000C2850021C163222280F83A2080F8381080
:100E10000168CA6842F48072CA6001684A6942F097
:100E200001024A610068C16841F02001C1600020F0
:100E300070470120704702207047000010B500681D
:100E40001049884215D1104A5088010411D4114626
:100E50004304097811D55D290CD00C4CC0F30D0367
:100E6000401CE1545080C0F30D00C72801D9002078
:100E7000508010BD40F40040FAE75B29F9D140F4FE
:100E80008040F5E700100140140000201800002009
:100E90007047FEE7FEE770477047704770B5214C1A
:100EA00092B00025266846F080562660246804F03B
:100EB000805411941C4C266846F4804626602468B1
:100EC0000DF1240C04F480441194012400942404B2
:100ED0000194022406948CE80D006605CDE90761B3
:100EE0006846FFF7D9FC00B1FEE70CA90F2081E8A6
:100EF00031004FF4A0500F904FF480501090052116
:100F00000CA8FFF7E1FB00B1FEE7FFF753FB41F24E
:100F10000101884204D10548016841F480710160F3
:100F200012B070BD4038024000700040003C0240EA
:100F3000FFF74CBB1048016841F4700101600F4895
:100F4000016841F0010101600C4A00210832116082
:100F500002680B4B1A400260031D0A4A1A600268BD
:100F600022F48022026005480C30016002495806D4
:100F7000803908607047000088ED00E000380240CA
:100F8000FFFFF6FE1030002410B5806B0021C185F4
:100F9000C184FFF72BFE10BD0168CA6822F490726D
:100FA000CA6001684A6922F001024A61202180F882
:100FB0003A10704710B590F83A10222901D002205B
:100FC00010BD8168B1F5805F11D001690029016809
:100FD0001FD0496801F07F03816A4A1C82620B704E
:100FE000C18D491E0904090CC18518D02BE0026986
:100FF000816A002A0268526805D0D2B20A80816AEA
:10100000491C8162ECE7C2F308020A80816A891CEC
:10101000F7E74A68816A4B1C83620A70E0E701685F
:10102000CA6822F02002CA600168CA6822F480728D
:10103000CA6001684A6922F001024A61202180F8F1
:101040003A10FFF7FBFE002010BD00002DE9F04133
:10105000044600680169E26821F4405111430161CE
:10106000A1682069E2690143606910430143206877
:10107000C26849F20C639A430A43C260206841691E
:10108000A26921F4407111434161E0696425B0F522
:10109000004F974A974920684FF032083FD0884266
:1010A00001D090427CD1FFF7B7FB00EBC00101EB10
:1010B000001061688900B0FBF1F6FFF7ADFB00EBB3
:1010C000C00101EB001061688900B0FBF1F0B0FBDA
:1010D000F5F06FF01801484306EB800108EB0110B2
:1010E000B0FBF5F000F0F006FFF796FB00EBC00157
:1010F00001EB001061688900B0FBF1F0B0FBF5F086
:1011000006EB0016FFF788FB00EBC00101EB0010B7
:1011100061688900B0FBF1F7FFF77EFBD2E08842FF
:1011200001D090423DD1FFF777FB00EBC00101EB0E
:10113000001061684900B0FBF1F0B0FBF5F006016A
:10114000FFF76AFB00EBC00101EB0010616849008A
:10115000B0FBF1F7FFF760FB00EBC00101EB001003
:1011600061684900B0FBF1F0B0FBF5F06FF01801D9
:10117000484307EB800108EBC100B0FBF5F000F03D
:10118000F80006EB4006FFF747FB00EBC00101EB60
:10119000001061684900B0FBF1F7FFF73DFB3CE050
:1011A00055E0FFF729FB00EBC00101EB001061687F
:1011B0004900B0FBF1F0B0FBF5F00601FFF71CFBB6
:1011C00000EBC00101EB001061684900B0FBF1F7D2
:1011D000FFF712FB00EBC00101EB00106168490052
:1011E000B0FBF1F0B0FBF5F06FF01801484307EBEE
:1011F000800108EBC100B0FBF5F000F0F80006EB51
:101200004006FFF7F9FA00EBC00101EB001061683E
:101210004900B0FBF1F7FFF7EFFA00EBC00101EB7B
:10122000001061684900B0FBF1F0B0FBF5F06FF021
:101230001801484307EB800108EBC100B0FBF5F053
:1012400000F00700216830448860BDE8F081FFF7B6
:10125000D3FA00EBC00101EB001061688900B0FB1C
:10126000F1F6FFF7C9FA00EBC00101EB001061686D
:101270008900B0FBF1F0B0FBF5F06FF018014843C6
:1012800006EB800108EB0110B0FBF5F000F0F00672
:10129000FFF7B2FA00EBC00101EB001061688900B2
:1012A000B0FBF1F0B0FBF5F006EB0016FFF7A4FA87
:1012B00000EBC00101EB001061688900B0FBF1F7A1
:1012C000FFF79AFA00EBC00101EB0010616889009A
:1012D000B0FBF1F0B0FBF5F06FF01801484307EBFD
:1012E000800108EB0110B0FBF5F000F00F00A9E75A
:1012F000001401400010014090F83910212901D05C
:10130000022070478168B1F5805F016A0BD04A1CEA
:101310000262026809785160C18C491E0904090CF7
:10132000C1840ED017E009880268C1F3080151603A
:1013300001690029016A02D0491C0162ECE7891C9D
:10134000FBE70168CA6822F08002CA600068C168D1
:1013500041F04001C16000207047000010B508480E
:10136000FFF74AFC0648FFF742FC2028FAD1012289
:1013700004490348FFF738FD0028F8D110BD0000EC
:10138000E000002014000020FEE70907090E0028F5
:1013900004DB00F1E02080F80014704700F00F003B
:1013A00000F1E02080F8141D7047704710B5044626
:1013B0000420FFF7FBFB0148046010BD1000002073
:1013C00070B5054600244FF47A7603E0304600F00D
:1013D00005F8641CAC42F9D370BD000070B54FF045
:1013E000E02500216C69094AAB6912685043AA697B
:1013F0009A42FCD002D2A3EB020302E0A4EB020665
:101400003344194413468142F1D370BD10000020CB
:1014100030B50F4887B0016841F0200101600068D5
:101420004FF4C06400F0200005900120CDE9004099
:1014300002900320074D039069462846FEF7D4FF2B
:10144000012221462846FFF7AFF807B030BD000063
:101450003038024000140240FFF7C0F80723022290
:1014600008214FF4A870FFF719FDA820FFF79EFF91
:10147000FFF7CEFF4FF4E13000F042F8DFF874A040
:101480001D4DDFF878804FF400794FF4FA764FF471
:10149000806BB8F800100904FBD5002420E01AF88E
:1014A000040001281BD100224F4649462846FFF779
:1014B0007BF83046FFF784FF012239462846FFF7C4
:1014C00073F800225F4659462846FFF76DF830460C
:1014D000FFF776FF012239462846FFF765F8641CBE
:1014E000B8F80000C0F30D00A042D8DC0020A8F836
:1014F0000000CEE718000020001402401600002073
:101500000B4910B5094AC1E9002000208860C86075
:10151000086188610C2048610846FFF7F5FBBDE8CB
:101520001040012203490248FFF75EBC0010014051
:10153000E0000020140000204FF04070E1EE100A9F
:1015400070470000000000000000010203040607CD
:101550000809000000000102030400007C150008D7
:101560000000002018000000C401000894150008C5
:101570001800002068070000E00100080024F400C3
:10158000010000001000000000000000000000004A
:041590000000000057
:040000050800018965
:00000001FF
